{
  "contractName": "MEcoin",
  "abi": [
    {
      "inputs": [],
      "payable": false,
      "stateMutability": "nonpayable",
      "type": "constructor"
    },
    {
      "anonymous": false,
      "inputs": [
        {
          "indexed": false,
          "internalType": "address",
          "name": "from",
          "type": "address"
        },
        {
          "indexed": false,
          "internalType": "address",
          "name": "to",
          "type": "address"
        },
        {
          "indexed": false,
          "internalType": "uint256",
          "name": "amount",
          "type": "uint256"
        }
      ],
      "name": "Sent",
      "type": "event"
    },
    {
      "constant": true,
      "inputs": [
        {
          "internalType": "address",
          "name": "",
          "type": "address"
        }
      ],
      "name": "balances",
      "outputs": [
        {
          "internalType": "uint256",
          "name": "",
          "type": "uint256"
        }
      ],
      "payable": false,
      "stateMutability": "view",
      "type": "function"
    },
    {
      "constant": true,
      "inputs": [],
      "name": "minter",
      "outputs": [
        {
          "internalType": "address",
          "name": "",
          "type": "address"
        }
      ],
      "payable": false,
      "stateMutability": "view",
      "type": "function"
    },
    {
      "constant": false,
      "inputs": [
        {
          "internalType": "address",
          "name": "receiver",
          "type": "address"
        },
        {
          "internalType": "uint256",
          "name": "amount",
          "type": "uint256"
        }
      ],
      "name": "mint",
      "outputs": [],
      "payable": false,
      "stateMutability": "nonpayable",
      "type": "function"
    },
    {
      "constant": false,
      "inputs": [
        {
          "internalType": "address",
          "name": "receiver",
          "type": "address"
        },
        {
          "internalType": "uint256",
          "name": "amount",
          "type": "uint256"
        }
      ],
      "name": "send",
      "outputs": [],
      "payable": false,
      "stateMutability": "nonpayable",
      "type": "function"
    },
    {
      "constant": true,
      "inputs": [
        {
          "internalType": "address",
          "name": "_account",
          "type": "address"
        }
      ],
      "name": "showbalances",
      "outputs": [
        {
          "internalType": "uint256",
          "name": "",
          "type": "uint256"
        }
      ],
      "payable": false,
      "stateMutability": "view",
      "type": "function"
    }
  ],
  "bytecode": "0x608060405234801561001057600080fd5b50600080546001600160a01b031916331790556102d4806100326000396000f3fe608060405234801561001057600080fd5b50600436106100575760003560e01c8063075461721461005c5780632731b5011461008057806327e235e3146100b857806340c10f19146100de578063d0679d341461010c575b600080fd5b610064610138565b604080516001600160a01b039092168252519081900360200190f35b6100a66004803603602081101561009657600080fd5b50356001600160a01b0316610147565b60408051918252519081900360200190f35b6100a6600480360360208110156100ce57600080fd5b50356001600160a01b0316610162565b61010a600480360360408110156100f457600080fd5b506001600160a01b038135169060200135610174565b005b61010a6004803603604081101561012257600080fd5b506001600160a01b0381351690602001356101d2565b6000546001600160a01b031681565b6001600160a01b031660009081526001602052604090205490565b60016020526000908152604090205481565b6000546001600160a01b0316331461018b57600080fd5b789f4f2726179a224501d762422c946590d9100000000000000081106101b057600080fd5b6001600160a01b03909116600090815260016020526040902080549091019055565b3360009081526001602052604090205481111561022e576040805162461bcd60e51b815260206004820152601560248201527424b739bab33334b1b4b2b73a103130b630b731b29760591b604482015290519081900360640190fd5b336000818152600160209081526040808320805486900390556001600160a01b03861680845292819020805486019055805193845290830191909152818101839052517f3990db2d31862302a685e8086b5755072a6e2b5b780af1ee81ece35ee3cd33459181900360600190a1505056fea265627a7a72315820070864c1b66662dd58314d7b6d6e1750ee72c8aaba8bdbe80b23fac4beb30eb964736f6c63430005100032",
  "source": "pragma solidity >=0.5.0 <0.7.0;\ncontract MEcoin {\n   address public minter;\n\n   mapping (address => uint) public balances;\n   \n   event Sent(address from, address to, uint amount);\n\n   constructor() public {\n      minter = msg.sender;\n      }\n   function mint(address receiver, uint amount) public {\n      require(msg.sender == minter);\n      require(amount < 1e60);\n      balances[receiver] += amount;\n   }\n\n   function send(address receiver, uint amount) public {\n      require(amount <= balances[msg.sender], \"Insufficient balance.\");\n      balances[msg.sender] -= amount;\n      balances[receiver] += amount;\n      emit Sent(msg.sender, receiver, amount);\n   }\n\n   function showbalances(address _account) external view returns (uint) {\n      return balances[_account];\n   }\n}",
  "sourcePath": "/Users/ciaodejan/.bitnami/stackman/machines/wordpress/volumes/root/apps/wordpress/htdocs/wp-content/themes/MEnet-wp/contracts/MEcoin.sol",
  "compiler": {
    "name": "solc",
    "version": "0.5.16+commit.9c3226ce.Emscripten.clang"
  },
  "schemaVersion": "3.2.4",
  "updatedAt": "2020-09-05T21:35:20.044Z",
  "networkType": "ethereum",
  "devdoc": {
    "methods": {}
  },
  "userdoc": {
    "methods": {}
  }
}